{
  "_format": "hh-sol-artifact-1",
  "contractName": "CertificateRegistry",
  "sourceName": "contracts/CertificateRegistry.sol",
  "abi": [
    {
      "inputs": [],
      "stateMutability": "nonpayable",
      "type": "constructor"
    },
    {
      "anonymous": false,
      "inputs": [
        {
          "indexed": true,
          "internalType": "string",
          "name": "certId",
          "type": "string"
        },
        {
          "indexed": false,
          "internalType": "string",
          "name": "pdfHash",
          "type": "string"
        },
        {
          "indexed": true,
          "internalType": "uint256",
          "name": "issuedAt",
          "type": "uint256"
        },
        {
          "indexed": true,
          "internalType": "address",
          "name": "issuer",
          "type": "address"
        }
      ],
      "name": "CertificateAdded",
      "type": "event"
    },
    {
      "anonymous": false,
      "inputs": [
        {
          "indexed": true,
          "internalType": "string",
          "name": "certId",
          "type": "string"
        },
        {
          "indexed": true,
          "internalType": "uint256",
          "name": "revokedAt",
          "type": "uint256"
        },
        {
          "indexed": true,
          "internalType": "address",
          "name": "revoker",
          "type": "address"
        }
      ],
      "name": "CertificateRevoked",
      "type": "event"
    },
    {
      "inputs": [
        {
          "internalType": "string",
          "name": "certId",
          "type": "string"
        },
        {
          "internalType": "string",
          "name": "pdfHash",
          "type": "string"
        }
      ],
      "name": "addCertificate",
      "outputs": [],
      "stateMutability": "nonpayable",
      "type": "function"
    },
    {
      "inputs": [
        {
          "internalType": "string",
          "name": "certId",
          "type": "string"
        }
      ],
      "name": "getCertificate",
      "outputs": [
        {
          "internalType": "string",
          "name": "pdfHash",
          "type": "string"
        },
        {
          "internalType": "uint256",
          "name": "issuedAt",
          "type": "uint256"
        },
        {
          "internalType": "bool",
          "name": "revoked",
          "type": "bool"
        }
      ],
      "stateMutability": "view",
      "type": "function"
    },
    {
      "inputs": [],
      "name": "owner",
      "outputs": [
        {
          "internalType": "address",
          "name": "",
          "type": "address"
        }
      ],
      "stateMutability": "view",
      "type": "function"
    },
    {
      "inputs": [
        {
          "internalType": "string",
          "name": "certId",
          "type": "string"
        }
      ],
      "name": "revokeCertificate",
      "outputs": [],
      "stateMutability": "nonpayable",
      "type": "function"
    },
    {
      "inputs": [
        {
          "internalType": "string",
          "name": "certId",
          "type": "string"
        },
        {
          "internalType": "string",
          "name": "pdfHash",
          "type": "string"
        }
      ],
      "name": "verifyCertificate",
      "outputs": [
        {
          "internalType": "bool",
          "name": "exists",
          "type": "bool"
        },
        {
          "internalType": "bool",
          "name": "revoked",
          "type": "bool"
        },
        {
          "internalType": "bool",
          "name": "hashMatches",
          "type": "bool"
        }
      ],
      "stateMutability": "view",
      "type": "function"
    }
  ],
  "bytecode": "0x608060405234801561001057600080fd5b50336000806101000a81548173ffffffffffffffffffffffffffffffffffffffff021916908373ffffffffffffffffffffffffffffffffffffffff1602179055506111bd806100606000396000f3fe608060405234801561001057600080fd5b50600436106100575760003560e01c8063142e15421461005c5780632751f71b146100785780638da5cb5b146100aa578063e24f2ce7146100c8578063ed0f2e75146100e4575b600080fd5b610076600480360381019061007191906107ee565b610116565b005b610092600480360381019061008d919061083b565b6102df565b6040516100a1939291906108d7565b60405180910390f35b6100b2610382565b6040516100bf919061094f565b60405180910390f35b6100e260048036038101906100dd919061083b565b6103a6565b005b6100fe60048036038101906100f991906107ee565b61065a565b60405161010d93929190610a13565b60405180910390f35b60008054906101000a900473ffffffffffffffffffffffffffffffffffffffff1673ffffffffffffffffffffffffffffffffffffffff163373ffffffffffffffffffffffffffffffffffffffff16146101a4576040517f08c379a000000000000000000000000000000000000000000000000000000000815260040161019b90610a9d565b60405180910390fd5b6000600183836040516101b8929190610afc565b90815260200160405180910390209050600081600101540361020f576040517f08c379a000000000000000000000000000000000000000000000000000000000815260040161020690610b61565b60405180910390fd5b8060020160009054906101000a900460ff1615610261576040517f08c379a000000000000000000000000000000000000000000000000000000000815260040161025890610bcd565b60405180910390fd5b60018160020160006101000a81548160ff0219169083151502179055503373ffffffffffffffffffffffffffffffffffffffff164284846040516102a6929190610afc565b60405180910390207f70fa7d9a7bf3ecf0a748c340798d2365a708483be4c68239e1f2873a77d85eed60405160405180910390a4505050565b600080600080600188886040516102f7929190610afc565b90815260200160405180910390209050600081600101540361032457600080600093509350935050610378565b60008686604051610336929190610c1d565b60405180910390208260000160405161034f9190610d2e565b604051809103902014905060018260020160009054906101000a900460ff168294509450945050505b9450945094915050565b60008054906101000a900473ffffffffffffffffffffffffffffffffffffffff1681565b60008054906101000a900473ffffffffffffffffffffffffffffffffffffffff1673ffffffffffffffffffffffffffffffffffffffff163373ffffffffffffffffffffffffffffffffffffffff1614610434576040517f08c379a000000000000000000000000000000000000000000000000000000000815260040161042b90610a9d565b60405180910390fd5b6000848490501161047a576040517f08c379a000000000000000000000000000000000000000000000000000000000815260040161047190610d91565b60405180910390fd5b600082829050116104c0576040517f08c379a00000000000000000000000000000000000000000000000000000000081526004016104b790610dfd565b60405180910390fd5b6000600185856040516104d4929190610afc565b90815260200160405180910390206001015414610526576040517f08c379a000000000000000000000000000000000000000000000000000000000815260040161051d90610e69565b60405180910390fd5b604051806060016040528083838080601f016020809104026020016040519081016040528093929190818152602001838380828437600081840152601f19601f820116905080830192505050505050508152602001428152602001600015158152506001858560405161059a929190610afc565b908152602001604051809103902060008201518160000190816105bd9190611064565b506020820151816001015560408201518160020160006101000a81548160ff0219169083151502179055509050503373ffffffffffffffffffffffffffffffffffffffff16428585604051610613929190610afc565b60405180910390207f4c1d2d32b46f9a7fbe74bdae34cf4738635a6f2ce0d900954dd47dd52cd22874858560405161064c929190611163565b60405180910390a450505050565b6060600080600060018686604051610673929190610afc565b9081526020016040518091039020905060008160010154036106ca576040517f08c379a00000000000000000000000000000000000000000000000000000000081526004016106c190610b61565b60405180910390fd5b8060000181600101548260020160009054906101000a900460ff168280546106f190610c65565b80601f016020809104026020016040519081016040528092919081815260200182805461071d90610c65565b801561076a5780601f1061073f5761010080835404028352916020019161076a565b820191906000526020600020905b81548152906001019060200180831161074d57829003601f168201915b50505050509250935093509350509250925092565b600080fd5b600080fd5b600080fd5b600080fd5b600080fd5b60008083601f8401126107ae576107ad610789565b5b8235905067ffffffffffffffff8111156107cb576107ca61078e565b5b6020830191508360018202830111156107e7576107e6610793565b5b9250929050565b600080602083850312156108055761080461077f565b5b600083013567ffffffffffffffff81111561082357610822610784565b5b61082f85828601610798565b92509250509250929050565b600080600080604085870312156108555761085461077f565b5b600085013567ffffffffffffffff81111561087357610872610784565b5b61087f87828801610798565b9450945050602085013567ffffffffffffffff8111156108a2576108a1610784565b5b6108ae87828801610798565b925092505092959194509250565b60008115159050919050565b6108d1816108bc565b82525050565b60006060820190506108ec60008301866108c8565b6108f960208301856108c8565b61090660408301846108c8565b949350505050565b600073ffffffffffffffffffffffffffffffffffffffff82169050919050565b60006109398261090e565b9050919050565b6109498161092e565b82525050565b60006020820190506109646000830184610940565b92915050565b600081519050919050565b600082825260208201905092915050565b60005b838110156109a4578082015181840152602081019050610989565b60008484015250505050565b6000601f19601f8301169050919050565b60006109cc8261096a565b6109d68185610975565b93506109e6818560208601610986565b6109ef816109b0565b840191505092915050565b6000819050919050565b610a0d816109fa565b82525050565b60006060820190508181036000830152610a2d81866109c1565b9050610a3c6020830185610a04565b610a4960408301846108c8565b949350505050565b7f4f6e6c79206f776e65722063616e2063616c6c20746869730000000000000000600082015250565b6000610a87601883610975565b9150610a9282610a51565b602082019050919050565b60006020820190508181036000830152610ab681610a7a565b9050919050565b600081905092915050565b82818337600083830152505050565b6000610ae38385610abd565b9350610af0838584610ac8565b82840190509392505050565b6000610b09828486610ad7565b91508190509392505050565b7f4365727469666963617465206e6f7420666f756e640000000000000000000000600082015250565b6000610b4b601583610975565b9150610b5682610b15565b602082019050919050565b60006020820190508181036000830152610b7a81610b3e565b9050919050565b7f436572746966696361746520616c7265616479207265766f6b65640000000000600082015250565b6000610bb7601b83610975565b9150610bc282610b81565b602082019050919050565b60006020820190508181036000830152610be681610baa565b9050919050565b600081905092915050565b6000610c048385610bed565b9350610c11838584610ac8565b82840190509392505050565b6000610c2a828486610bf8565b91508190509392505050565b7f4e487b7100000000000000000000000000000000000000000000000000000000600052602260045260246000fd5b60006002820490506001821680610c7d57607f821691505b602082108103610c9057610c8f610c36565b5b50919050565b60008190508160005260206000209050919050565b60008154610cb881610c65565b610cc28186610bed565b94506001821660008114610cdd5760018114610cf257610d25565b60ff1983168652811515820286019350610d25565b610cfb85610c96565b60005b83811015610d1d57815481890152600182019150602081019050610cfe565b838801955050505b50505092915050565b6000610d3a8284610cab565b915081905092915050565b7f4365727469666963617465204944207265717569726564000000000000000000600082015250565b6000610d7b601783610975565b9150610d8682610d45565b602082019050919050565b60006020820190508181036000830152610daa81610d6e565b9050919050565b7f5044462068617368207265717569726564000000000000000000000000000000600082015250565b6000610de7601183610975565b9150610df282610db1565b602082019050919050565b60006020820190508181036000830152610e1681610dda565b9050919050565b7f436572746966696361746520616c726561647920657869737473000000000000600082015250565b6000610e53601a83610975565b9150610e5e82610e1d565b602082019050919050565b60006020820190508181036000830152610e8281610e46565b9050919050565b7f4e487b7100000000000000000000000000000000000000000000000000000000600052604160045260246000fd5b60008190508160005260206000209050919050565b60006020601f8301049050919050565b600082821b905092915050565b600060088302610f1a7fffffffffffffffffffffffffffffffffffffffffffffffffffffffffffffffff82610edd565b610f248683610edd565b95508019841693508086168417925050509392505050565b6000819050919050565b6000610f61610f5c610f57846109fa565b610f3c565b6109fa565b9050919050565b6000819050919050565b610f7b83610f46565b610f8f610f8782610f68565b848454610eea565b825550505050565b600090565b610fa4610f97565b610faf818484610f72565b505050565b5b81811015610fd357610fc8600082610f9c565b600181019050610fb5565b5050565b601f82111561101857610fe981610eb8565b610ff284610ecd565b81016020851015611001578190505b61101561100d85610ecd565b830182610fb4565b50505b505050565b600082821c905092915050565b600061103b6000198460080261101d565b1980831691505092915050565b6000611054838361102a565b9150826002028217905092915050565b61106d8261096a565b67ffffffffffffffff81111561108657611085610e89565b5b6110908254610c65565b61109b828285610fd7565b600060209050601f8311600181146110ce57600084156110bc578287015190505b6110c68582611048565b86555061112e565b601f1984166110dc86610eb8565b60005b82811015611104578489015182556001820191506020850194506020810190506110df565b86831015611121578489015161111d601f89168261102a565b8355505b6001600288020188555050505b505050505050565b60006111428385610975565b935061114f838584610ac8565b611158836109b0565b840190509392505050565b6000602082019050818103600083015261117e818486611136565b9050939250505056fea26469706673582212208cd524199f94b12ccda3fe17fbdb22c995453aa637e1e471892b94af4d81bdfa64736f6c63430008140033",
  "linkReferences": {},
  "deployedLinkReferences": {}
}